{
  "contractName": "ArbExample",
  "abi": [
    {
      "payable": true,
      "stateMutability": "payable",
      "type": "fallback"
    },
    {
      "constant": true,
      "inputs": [],
      "name": "DAI",
      "outputs": [
        {
          "internalType": "address",
          "name": "",
          "type": "address"
        }
      ],
      "payable": false,
      "stateMutability": "view",
      "type": "function"
    },
    {
      "constant": true,
      "inputs": [],
      "name": "KYBER_PROXY",
      "outputs": [
        {
          "internalType": "contract IKyber",
          "name": "",
          "type": "address"
        }
      ],
      "payable": false,
      "stateMutability": "view",
      "type": "function"
    },
    {
      "constant": true,
      "inputs": [],
      "name": "SAI",
      "outputs": [
        {
          "internalType": "address",
          "name": "",
          "type": "address"
        }
      ],
      "payable": false,
      "stateMutability": "view",
      "type": "function"
    },
    {
      "constant": true,
      "inputs": [],
      "name": "USDC",
      "outputs": [
        {
          "internalType": "address",
          "name": "",
          "type": "address"
        }
      ],
      "payable": false,
      "stateMutability": "view",
      "type": "function"
    },
    {
      "constant": true,
      "inputs": [],
      "name": "WETH",
      "outputs": [
        {
          "internalType": "address",
          "name": "",
          "type": "address"
        }
      ],
      "payable": false,
      "stateMutability": "view",
      "type": "function"
    },
    {
      "constant": true,
      "inputs": [
        {
          "internalType": "address",
          "name": "",
          "type": "address"
        }
      ],
      "name": "currencies",
      "outputs": [
        {
          "internalType": "uint256",
          "name": "",
          "type": "uint256"
        }
      ],
      "payable": false,
      "stateMutability": "view",
      "type": "function"
    },
    {
      "constant": true,
      "inputs": [],
      "name": "loan",
      "outputs": [
        {
          "internalType": "uint256",
          "name": "",
          "type": "uint256"
        }
      ],
      "payable": false,
      "stateMutability": "view",
      "type": "function"
    },
    {
      "constant": true,
      "inputs": [],
      "name": "owner",
      "outputs": [
        {
          "internalType": "address",
          "name": "",
          "type": "address"
        }
      ],
      "payable": false,
      "stateMutability": "view",
      "type": "function"
    },
    {
      "constant": true,
      "inputs": [
        {
          "internalType": "address",
          "name": "token",
          "type": "address"
        }
      ],
      "name": "tokenToMarketId",
      "outputs": [
        {
          "internalType": "uint256",
          "name": "",
          "type": "uint256"
        }
      ],
      "payable": false,
      "stateMutability": "view",
      "type": "function"
    },
    {
      "constant": false,
      "inputs": [],
      "name": "withdrawFunds",
      "outputs": [],
      "payable": false,
      "stateMutability": "nonpayable",
      "type": "function"
    },
    {
      "constant": false,
      "inputs": [
        {
          "internalType": "address",
          "name": "flashToken",
          "type": "address"
        },
        {
          "internalType": "uint256",
          "name": "flashAmount",
          "type": "uint256"
        }
      ],
      "name": "getFlashloan",
      "outputs": [],
      "payable": false,
      "stateMutability": "nonpayable",
      "type": "function"
    },
    {
      "constant": false,
      "inputs": [
        {
          "internalType": "address",
          "name": "",
          "type": "address"
        },
        {
          "components": [
            {
              "internalType": "address",
              "name": "owner",
              "type": "address"
            },
            {
              "internalType": "uint256",
              "name": "number",
              "type": "uint256"
            }
          ],
          "internalType": "struct Structs.Info",
          "name": "",
          "type": "tuple"
        },
        {
          "internalType": "bytes",
          "name": "data",
          "type": "bytes"
        }
      ],
      "name": "callFunction",
      "outputs": [],
      "payable": false,
      "stateMutability": "nonpayable",
      "type": "function"
    }
  ],
  "bytecode": "0x6080604052731e0447b19bb6ecfdae1e4ae1694b0c3659614e4e6000806101000a81548173ffffffffffffffffffffffffffffffffffffffff021916908373ffffffffffffffffffffffffffffffffffffffff16021790555073c02aaa39b223fe8d0a0e5c4f27ead9083c756cc2600160006101000a81548173ffffffffffffffffffffffffffffffffffffffff021916908373ffffffffffffffffffffffffffffffffffffffff1602179055507389d24a6b4ccb1b6faa2625fe562bdd9a23260359600260006101000a81548173ffffffffffffffffffffffffffffffffffffffff021916908373ffffffffffffffffffffffffffffffffffffffff16021790555073a0b86991c6218b36c1d19d4a2e9eb0ce3606eb48600360006101000a81548173ffffffffffffffffffffffffffffffffffffffff021916908373ffffffffffffffffffffffffffffffffffffffff160217905550736b175474e89094c44da98b954eedeac495271d0f600460006101000a81548173ffffffffffffffffffffffffffffffffffffffff021916908373ffffffffffffffffffffffffffffffffffffffff16021790555073818e6fecd516ecc3849daf6845e3ec868087b755600660006101000a81548173ffffffffffffffffffffffffffffffffffffffff021916908373ffffffffffffffffffffffffffffffffffffffff1602179055507389d24a6b4ccb1b6faa2625fe562bdd9a23260359600760006101000a81548173ffffffffffffffffffffffffffffffffffffffff021916908373ffffffffffffffffffffffffffffffffffffffff160217905550600160056000600160009054906101000a900473ffffffffffffffffffffffffffffffffffffffff1673ffffffffffffffffffffffffffffffffffffffff1673ffffffffffffffffffffffffffffffffffffffff16815260200190815260200160002081905550600260056000600260009054906101000a900473ffffffffffffffffffffffffffffffffffffffff1673ffffffffffffffffffffffffffffffffffffffff1673ffffffffffffffffffffffffffffffffffffffff16815260200190815260200160002081905550600360056000600360009054906101000a900473ffffffffffffffffffffffffffffffffffffffff1673ffffffffffffffffffffffffffffffffffffffff1673ffffffffffffffffffffffffffffffffffffffff16815260200190815260200160002081905550600460056000600460009054906101000a900473ffffffffffffffffffffffffffffffffffffffff1673ffffffffffffffffffffffffffffffffffffffff1673ffffffffffffffffffffffffffffffffffffffff1681526020019081526020016000208190555033600860006101000a81548173ffffffffffffffffffffffffffffffffffffffff021916908373ffffffffffffffffffffffffffffffffffffffff160217905550611f4c806104426000396000f3fe6080604052600436106100a75760003560e01c80638da5cb5b116100645780638da5cb5b146101a7578063ac542fb8146101d2578063ad5c4648146101fb578063b826878814610226578063d285b7b414610263578063e0bab4c41461028e576100a7565b806324600fc3146100a95780634b3fb7f8146100c05780634fb7db3f146100eb5780636036cba31461011657806389a30271146101535780638b4187131461017e575b005b3480156100b557600080fd5b506100be6102b9565b005b3480156100cc57600080fd5b506100d56104cd565b6040516100e2919061197d565b60405180910390f35b3480156100f757600080fd5b506101006104f3565b60405161010d9190611b56565b60405180910390f35b34801561012257600080fd5b5061013d600480360361013891908101906113a4565b610519565b60405161014a9190611bfa565b60405180910390f35b34801561015f57600080fd5b50610168610531565b604051610175919061197d565b60405180910390f35b34801561018a57600080fd5b506101a560048036036101a0919081019061141c565b610557565b005b3480156101b357600080fd5b506101bc6106ed565b6040516101c9919061197d565b60405180910390f35b3480156101de57600080fd5b506101f960048036036101f49190810190611488565b610713565b005b34801561020757600080fd5b506102106107d9565b60405161021d919061197d565b60405180910390f35b34801561023257600080fd5b5061024d600480360361024891908101906113a4565b6107ff565b60405161025a9190611bfa565b60405180910390f35b34801561026f57600080fd5b50610278610894565b6040516102859190611bfa565b60405180910390f35b34801561029a57600080fd5b506102a361089a565b6040516102b0919061197d565b60405180910390f35b600860009054906101000a900473ffffffffffffffffffffffffffffffffffffffff1673ffffffffffffffffffffffffffffffffffffffff163373ffffffffffffffffffffffffffffffffffffffff161461031357600080fd5b3373ffffffffffffffffffffffffffffffffffffffff166108fc3073ffffffffffffffffffffffffffffffffffffffff16319081150290604051600060405180830381858888f19350505050158015610370573d6000803e3d6000fd5b50600760009054906101000a900473ffffffffffffffffffffffffffffffffffffffff1673ffffffffffffffffffffffffffffffffffffffff1663a9059cbb33600760009054906101000a900473ffffffffffffffffffffffffffffffffffffffff1673ffffffffffffffffffffffffffffffffffffffff166370a08231306040518263ffffffff1660e01b815260040161040b9190611998565b60206040518083038186803b15801561042357600080fd5b505afa158015610437573d6000803e3d6000fd5b505050506040513d601f19601f8201168201806040525061045b91908101906114ed565b6040518363ffffffff1660e01b81526004016104789291906119ea565b602060405180830381600087803b15801561049257600080fd5b505af11580156104a6573d6000803e3d6000fd5b505050506040513d601f19601f820116820180604052506104ca91908101906114c4565b50565b600260009054906101000a900473ffffffffffffffffffffffffffffffffffffffff1681565b600660009054906101000a900473ffffffffffffffffffffffffffffffffffffffff1681565b60056020528060005260406000206000915090505481565b600360009054906101000a900473ffffffffffffffffffffffffffffffffffffffff1681565b6000809054906101000a900473ffffffffffffffffffffffffffffffffffffffff1673ffffffffffffffffffffffffffffffffffffffff163373ffffffffffffffffffffffffffffffffffffffff16146105e6576040517f08c379a00000000000000000000000000000000000000000000000000000000081526004016105dd90611b9a565b60405180910390fd5b600080600084846105fa91908101906113cd565b92509250925060008373ffffffffffffffffffffffffffffffffffffffff166370a08231306040518263ffffffff1660e01b815260040161063b9190611998565b60206040518083038186803b15801561065357600080fd5b505afa158015610667573d6000803e3d6000fd5b505050506040513d601f19601f8201168201806040525061068b91908101906114ed565b905082828203146106d1576040517f08c379a00000000000000000000000000000000000000000000000000000000081526004016106c890611bba565b60405180910390fd5b806009819055506106e36009546108c0565b5050505050505050565b600860009054906101000a900473ffffffffffffffffffffffffffffffffffffffff1681565b60008273ffffffffffffffffffffffffffffffffffffffff166370a08231306040518263ffffffff1660e01b815260040161074e9190611998565b60206040518083038186803b15801561076657600080fd5b505afa15801561077a573d6000803e3d6000fd5b505050506040513d601f19601f8201168201806040525061079e91908101906114ed565b905060608383836040516020016107b793929190611a65565b60405160208183030381529060405290506107d3848483610905565b50505050565b600160009054906101000a900473ffffffffffffffffffffffffffffffffffffffff1681565b600080600560008473ffffffffffffffffffffffffffffffffffffffff1673ffffffffffffffffffffffffffffffffffffffff1681526020019081526020016000205490506000811415610888576040517f08c379a000000000000000000000000000000000000000000000000000000000815260040161087f90611bda565b60405180910390fd5b60018103915050919050565b60095481565b600460009054906101000a900473ffffffffffffffffffffffffffffffffffffffff1681565b610901600760009054906101000a900473ffffffffffffffffffffffffffffffffffffffff167309cabec1ead1c0ba254b09efb3ee13841712be1483610d74565b5050565b8273ffffffffffffffffffffffffffffffffffffffff1663095ea7b36000809054906101000a900473ffffffffffffffffffffffffffffffffffffffff16600185016040518363ffffffff1660e01b8152600401610964929190611a3c565b602060405180830381600087803b15801561097e57600080fd5b505af1158015610992573d6000803e3d6000fd5b505050506040513d601f19601f820116820180604052506109b691908101906114c4565b50606060016040519080825280602002602001820160405280156109f457816020015b6109e1611152565b8152602001906001900390816109d95790505b50905060606003604051908082528060200260200182016040528015610a3457816020015b610a21611182565b815260200190600190039081610a195790505b50905060405180604001604052803073ffffffffffffffffffffffffffffffffffffffff168152602001600081525082600081518110610a7057fe5b6020026020010181905250610a836111ee565b6040518060800160405280600015158152602001600080811115610aa357fe5b8152602001600080811115610ab457fe5b8152602001868152509050610ac761122c565b600181600001906008811115610ad957fe5b90816008811115610ae657fe5b815250506000816020018181525050818160400181905250610b07876107ff565b816060018181525050308160a0019073ffffffffffffffffffffffffffffffffffffffff16908173ffffffffffffffffffffffffffffffffffffffff16815250508083600081518110610b5657fe5b6020026020010181905250610b6961122c565b600881600001906008811115610b7b57fe5b90816008811115610b8857fe5b815250506000816020018181525050308160a0019073ffffffffffffffffffffffffffffffffffffffff16908173ffffffffffffffffffffffffffffffffffffffff1681525050858160e001819052508084600181518110610be657fe5b6020026020010181905250610bf961122c565b610c016111ee565b6040518060800160405280600115158152602001600080811115610c2157fe5b8152602001600080811115610c3257fe5b815260200160018b018152509050600082600001906008811115610c5257fe5b90816008811115610c5f57fe5b815250506000826020018181525050808260400181905250610c808a6107ff565b826060018181525050308260a0019073ffffffffffffffffffffffffffffffffffffffff16908173ffffffffffffffffffffffffffffffffffffffff16815250508186600281518110610ccf57fe5b60200260200101819052506000809054906101000a900473ffffffffffffffffffffffffffffffffffffffff1673ffffffffffffffffffffffffffffffffffffffff1663a67a6a4588886040518363ffffffff1660e01b8152600401610d36929190611a9c565b600060405180830381600087803b158015610d5057600080fd5b505af1158015610d64573d6000803e3d6000fd5b5050505050505050505050505050565b600080610da5600660009054906101000a900473ffffffffffffffffffffffffffffffffffffffff16868533610e43565b90508373ffffffffffffffffffffffffffffffffffffffff1663f39b5b9b826001426040518463ffffffff1660e01b8152600401610de4929190611b71565b6020604051808303818588803b158015610dfd57600080fd5b505af1158015610e11573d6000803e3d6000fd5b50505050506040513d601f19601f82011682018060405250610e3691908101906114ed565b5060019150509392505050565b60008373ffffffffffffffffffffffffffffffffffffffff166323b872dd3330866040518463ffffffff1660e01b8152600401610e82939291906119b3565b602060405180830381600087803b158015610e9c57600080fd5b505af1158015610eb0573d6000803e3d6000fd5b505050506040513d601f19601f82011682018060405250610ed491908101906114c4565b508373ffffffffffffffffffffffffffffffffffffffff1663095ea7b3600660009054906101000a900473ffffffffffffffffffffffffffffffffffffffff1660006040518363ffffffff1660e01b8152600401610f33929190611a13565b602060405180830381600087803b158015610f4d57600080fd5b505af1158015610f61573d6000803e3d6000fd5b505050506040513d601f19601f82011682018060405250610f8591908101906114c4565b508373ffffffffffffffffffffffffffffffffffffffff1663095ea7b3600660009054906101000a900473ffffffffffffffffffffffffffffffffffffffff16856040518363ffffffff1660e01b8152600401610fe3929190611a3c565b602060405180830381600087803b158015610ffd57600080fd5b505af1158015611011573d6000803e3d6000fd5b505050506040513d601f19601f8201168201806040525061103591908101906114c4565b506000600660009054906101000a900473ffffffffffffffffffffffffffffffffffffffff1673ffffffffffffffffffffffffffffffffffffffff166329589f61600760009054906101000a900473ffffffffffffffffffffffffffffffffffffffff168673eeeeeeeeeeeeeeeeeeeeeeeeeeeeeeeeeeeeeeee307a13726987666190aeec798abe93f11d65ee7f340000000000000000600060046040518863ffffffff1660e01b81526004016110f29796959493929190611ad3565b602060405180830381600087803b15801561110c57600080fd5b505af1158015611120573d6000803e3d6000fd5b505050506040513d601f19601f8201168201806040525061114491908101906114ed565b905080915050949350505050565b6040518060400160405280600073ffffffffffffffffffffffffffffffffffffffff168152602001600081525090565b6040518061010001604052806000600881111561119b57fe5b8152602001600081526020016111af611298565b81526020016000815260200160008152602001600073ffffffffffffffffffffffffffffffffffffffff16815260200160008152602001606081525090565b604051806080016040528060001515815260200160008081111561120e57fe5b815260200160008081111561121f57fe5b8152602001600081525090565b6040518061010001604052806000600881111561124557fe5b815260200160008152602001611259611298565b81526020016000815260200160008152602001600073ffffffffffffffffffffffffffffffffffffffff16815260200160008152602001606081525090565b60405180608001604052806000151581526020016000808111156112b857fe5b81526020016000808111156112c957fe5b8152602001600081525090565b6000813590506112e581611ead565b92915050565b6000813590506112fa81611ec4565b92915050565b60008151905061130f81611edb565b92915050565b60008083601f84011261132757600080fd5b8235905067ffffffffffffffff81111561134057600080fd5b60208301915083600182028301111561135857600080fd5b9250929050565b60006040828403121561137157600080fd5b81905092915050565b60008135905061138981611ef2565b92915050565b60008151905061139e81611ef2565b92915050565b6000602082840312156113b657600080fd5b60006113c4848285016112d6565b91505092915050565b6000806000606084860312156113e257600080fd5b60006113f0868287016112eb565b93505060206114018682870161137a565b92505060406114128682870161137a565b9150509250925092565b6000806000806080858703121561143257600080fd5b6000611440878288016112d6565b94505060206114518782880161135f565b935050606085013567ffffffffffffffff81111561146e57600080fd5b61147a87828801611315565b925092505092959194509250565b6000806040838503121561149b57600080fd5b60006114a9858286016112d6565b92505060206114ba8582860161137a565b9150509250929050565b6000602082840312156114d657600080fd5b60006114e484828501611300565b91505092915050565b6000602082840312156114ff57600080fd5b600061150d8482850161138f565b91505092915050565b60006115228383611828565b905092915050565b60006115368383611930565b60408301905092915050565b61154b81611d58565b82525050565b61155a81611cc5565b82525050565b61156981611cc5565b82525050565b600061157a82611c35565b6115848185611c70565b93508360208202850161159685611c15565b8060005b858110156115d257848403895281516115b38582611516565b94506115be83611c56565b925060208a0199505060018101905061159a565b50829750879550505050505092915050565b60006115ef82611c40565b6115f98185611c81565b935061160483611c25565b8060005b8381101561163557815161161c888261152a565b975061162783611c63565b925050600181019050611608565b5085935050505092915050565b61164b81611ce9565b82525050565b600061165c82611c4b565b6116668185611c92565b9350611676818560208601611e42565b61167f81611e75565b840191505092915050565b61169381611d6a565b82525050565b6116a281611d8e565b82525050565b6116b181611db2565b82525050565b6116c081611dc4565b82525050565b6116cf81611dd6565b82525050565b6116de81611de8565b82525050565b6116ed81611dfa565b82525050565b6116fc81611e0c565b82525050565b600061170f600483611ca3565b91507f5045524d000000000000000000000000000000000000000000000000000000006000830152602082019050919050565b600061174f602c83611cb4565b91507f466c6173684c6f616e3a20636f756c642062652063616c6c656420627920447960008301527f447820706f6f6c206f6e6c7900000000000000000000000000000000000000006020830152604082019050919050565b60006117b5601d83611cb4565b91507f636f6e747261637420646964206e6f742067657420746865206c6f616e0000006000830152602082019050919050565b60006117f5601c83611cb4565b91507f466c6173684c6f616e3a20556e737570706f7274656420746f6b656e000000006000830152602082019050919050565b60006101608301600083015161184160008601826116a8565b506020830151611854602086018261195f565b50604083015161186760408601826118db565b50606083015161187a60c086018261195f565b50608083015161188d60e086018261195f565b5060a08301516118a1610100860182611551565b5060c08301516118b561012086018261195f565b5060e08301518482036101408601526118ce8282611651565b9150508091505092915050565b6080820160008201516118f16000850182611642565b50602082015161190460208501826116b7565b50604082015161191760408501826116c6565b50606082015161192a606085018261195f565b50505050565b6040820160008201516119466000850182611551565b506020820151611959602085018261195f565b50505050565b61196881611d4e565b82525050565b61197781611d4e565b82525050565b60006020820190506119926000830184611560565b92915050565b60006020820190506119ad6000830184611542565b92915050565b60006060820190506119c86000830186611542565b6119d56020830185611542565b6119e2604083018461196e565b949350505050565b60006040820190506119ff6000830185611542565b611a0c602083018461196e565b9392505050565b6000604082019050611a286000830185611560565b611a3560208301846116d5565b9392505050565b6000604082019050611a516000830185611560565b611a5e602083018461196e565b9392505050565b6000606082019050611a7a6000830186611560565b611a87602083018561196e565b611a94604083018461196e565b949350505050565b60006040820190508181036000830152611ab681856115e4565b90508181036020830152611aca818461156f565b90509392505050565b600061010082019050611ae9600083018a61168a565b611af6602083018961196e565b611b03604083018861168a565b611b106060830187611542565b611b1d60808301866116f3565b611b2a60a08301856116d5565b611b3760c0830184611542565b81810360e0830152611b4881611702565b905098975050505050505050565b6000602082019050611b6b6000830184611699565b92915050565b6000604082019050611b8660008301856116e4565b611b93602083018461196e565b9392505050565b60006020820190508181036000830152611bb381611742565b9050919050565b60006020820190508181036000830152611bd3816117a8565b9050919050565b60006020820190508181036000830152611bf3816117e8565b9050919050565b6000602082019050611c0f600083018461196e565b92915050565b6000819050602082019050919050565b6000819050602082019050919050565b600081519050919050565b600081519050919050565b600081519050919050565b6000602082019050919050565b6000602082019050919050565b600082825260208201905092915050565b600082825260208201905092915050565b600082825260208201905092915050565b600082825260208201905092915050565b600082825260208201905092915050565b6000611cd082611d2e565b9050919050565b6000611ce282611d2e565b9050919050565b60008115159050919050565b6000819050611d0382611e86565b919050565b6000819050611d1682611e93565b919050565b6000819050611d2982611ea0565b919050565b600073ffffffffffffffffffffffffffffffffffffffff82169050919050565b6000819050919050565b6000611d6382611e1e565b9050919050565b6000611d7582611d7c565b9050919050565b6000611d8782611d2e565b9050919050565b6000611d9982611da0565b9050919050565b6000611dab82611d2e565b9050919050565b6000611dbd82611cf5565b9050919050565b6000611dcf82611d08565b9050919050565b6000611de182611d1b565b9050919050565b6000611df382611d4e565b9050919050565b6000611e0582611d4e565b9050919050565b6000611e1782611d4e565b9050919050565b6000611e2982611e30565b9050919050565b6000611e3b82611d2e565b9050919050565b60005b83811015611e60578082015181840152602081019050611e45565b83811115611e6f576000848401525b50505050565b6000601f19601f8301169050919050565b60098110611e9057fe5b50565b60018110611e9d57fe5b50565b60018110611eaa57fe5b50565b611eb681611cc5565b8114611ec157600080fd5b50565b611ecd81611cd7565b8114611ed857600080fd5b50565b611ee481611ce9565b8114611eef57600080fd5b50565b611efb81611d4e565b8114611f0657600080fd5b5056fea365627a7a72315820c1b1e67715b582a0144d04f4d5abbbb7fbeb2592684ef62dd233c58535f769ee6c6578706572696d656e74616cf564736f6c634300050c0040",
  "source": "pragma solidity ^0.5.0;\npragma experimental ABIEncoderV2;\n\ncontract UniswapExchangeInterface {\n    bytes32 public name;\n    bytes32 public symbol;\n    uint256 public decimals;\n    function tokenAddress() external view returns (address token);\n    function factoryAddress() external view returns (address factory);\n    function addLiquidity(uint256 min_liquidity, uint256 max_tokens, uint256 deadline) external payable returns (uint256);\n    function removeLiquidity(uint256 amount, uint256 min_eth, uint256 min_tokens, uint256 deadline) external returns (uint256, uint256);\n    function getEthToTokenInputPrice(uint256 eth_sold) external view returns (uint256 tokens_bought);\n    function getEthToTokenOutputPrice(uint256 tokens_bought) external view returns (uint256 eth_sold);\n    function getTokenToEthInputPrice(uint256 tokens_sold) external view returns (uint256 eth_bought);\n    function getTokenToEthOutputPrice(uint256 eth_bought) external view returns (uint256 tokens_sold);\n    function ethToTokenSwapInput(uint256 min_tokens, uint256 deadline) external payable returns (uint256  tokens_bought);\n    function ethToTokenTransferInput(uint256 min_tokens, uint256 deadline, address recipient) external payable returns (uint256  tokens_bought);\n    function ethToTokenSwapOutput(uint256 tokens_bought, uint256 deadline) external payable returns (uint256  eth_sold);\n    function ethToTokenTransferOutput(uint256 tokens_bought, uint256 deadline, address recipient) external payable returns (uint256  eth_sold);\n    function tokenToEthSwapInput(uint256 tokens_sold, uint256 min_eth, uint256 deadline) external returns (uint256  eth_bought);\n    function tokenToEthTransferInput(uint256 tokens_sold, uint256 min_eth, uint256 deadline, address recipient) external returns (uint256  eth_bought);\n    function tokenToEthSwapOutput(uint256 eth_bought, uint256 max_tokens, uint256 deadline) external returns (uint256  tokens_sold);\n    function tokenToEthTransferOutput(uint256 eth_bought, uint256 max_tokens, uint256 deadline, address recipient) external returns (uint256  tokens_sold);\n    function tokenToTokenSwapInput(uint256 tokens_sold, uint256 min_tokens_bought, uint256 min_eth_bought, uint256 deadline, address token_addr) external returns (uint256  tokens_bought);\n    function tokenToTokenTransferInput(uint256 tokens_sold, uint256 min_tokens_bought, uint256 min_eth_bought, uint256 deadline, address recipient, address token_addr) external returns (uint256  tokens_bought);\n    function tokenToTokenSwapOutput(uint256 tokens_bought, uint256 max_tokens_sold, uint256 max_eth_sold, uint256 deadline, address token_addr) external returns (uint256  tokens_sold);\n    function tokenToTokenTransferOutput(uint256 tokens_bought, uint256 max_tokens_sold, uint256 max_eth_sold, uint256 deadline, address recipient, address token_addr) external returns (uint256  tokens_sold);\n    function tokenToExchangeSwapInput(uint256 tokens_sold, uint256 min_tokens_bought, uint256 min_eth_bought, uint256 deadline, address exchange_addr) external returns (uint256  tokens_bought);\n    function tokenToExchangeTransferInput(uint256 tokens_sold, uint256 min_tokens_bought, uint256 min_eth_bought, uint256 deadline, address recipient, address exchange_addr) external returns (uint256  tokens_bought);\n    function tokenToExchangeSwapOutput(uint256 tokens_bought, uint256 max_tokens_sold, uint256 max_eth_sold, uint256 deadline, address exchange_addr) external returns (uint256  tokens_sold);\n    function tokenToExchangeTransferOutput(uint256 tokens_bought, uint256 max_tokens_sold, uint256 max_eth_sold, uint256 deadline, address recipient, address exchange_addr) external returns (uint256  tokens_sold);\n    function transfer(address _to, uint256 _value) external returns (bool);\n    function transferFrom(address _from, address _to, uint256 value) external returns (bool);\n    function approve(address _spender, uint256 _value) external returns (bool);\n    function allowance(address _owner, address _spender) external view returns (uint256);\n    function balanceOf(address _owner) external view returns (uint256);\n    function totalSupply() external view returns (uint256);\n    function setup(address token_addr) external;\n}\n\ninterface ERC20 {\n    function totalSupply() external view returns (uint supply);\n    function balanceOf(address _owner) external view returns (uint balance);\n    function transfer(address _to, uint _value) external returns (bool success);\n    function transferFrom(address _from, address _to, uint _value) external returns (bool success);\n    function approve(address _spender, uint _value) external returns (bool success);\n    function allowance(address _owner, address _spender) external view returns (uint remaining);\n    function decimals() external view returns(uint digits);\n    event Approval(address indexed _owner, address indexed _spender, uint _value);\n}\n\ninterface IKyber {\n    function maxGasPrice() external view returns(uint);\n    function getUserCapInWei(address user) external view returns(uint);\n    function getUserCapInTokenWei(address user, ERC20 token) external view returns(uint);\n    function enabled() external view returns(bool);\n    function info(bytes32 id) external view returns(uint);\n    function getExpectedRate(ERC20 src, ERC20 dest, uint srcQty) external view\n        returns (uint expectedRate, uint slippageRate);\n    function tradeWithHint(\n        ERC20 src,\n        uint srcAmount,\n        ERC20 dest,\n        address destAddress,\n        uint maxDestAmount,\n        uint minConversionRate,\n        address walletId,\n        bytes calldata hint\n    ) external payable returns(uint);\n    function swapEtherToToken(ERC20 token, uint minRate) external returns (uint);\n    function swapTokenToEther(ERC20 token, uint tokenQty, uint minRate) external returns (uint);\n}\n\ncontract Trader {\n    IKyber public KYBER_PROXY = IKyber(0x818E6FECD516Ecc3849DAf6845e3EC868087B755);\n    address sai = 0x89d24A6b4CcB1B6fAA2625fE562bDD9a23260359;\n    address public owner;\n\n    modifier onlyOwner() {\n        if (msg.sender != owner) {\n            revert();\n        }\n        _;\n    }\n\n    constructor() public {\n      owner = msg.sender;\n    }\n\n    // Allow contract to receive Ether\n    function () external payable {}\n\n    function kyberSwap (IKyber _kyberNetworkProxy, ERC20 token, uint tokenQty, address destAddress) internal returns (uint) {\n       token.transferFrom(msg.sender, address(this), tokenQty);\n       token.approve(address(KYBER_PROXY), 0);\n       token.approve(address(KYBER_PROXY), tokenQty);\n       uint destAmount = KYBER_PROXY.tradeWithHint(ERC20(sai), tokenQty, ERC20(0x00eeeeeeeeeeeeeeeeeeeeeeeeeeeeeeeeeeeeeeee), address(this), 8000000000000000000000000000000000000000000000000000000000000000, 0, 0x0000000000000000000000000000000000000004, \"PERM\");\n       return destAmount;\n    }\n\n    function buyKyberSellUniswap(address _fromToken, address _uniswap, uint _amount) internal returns (bool){\n        uint _ethAmount = kyberSwap(KYBER_PROXY, ERC20(_fromToken), _amount, msg.sender);\n        UniswapExchangeInterface(_uniswap).ethToTokenSwapInput.value(_ethAmount)(1, block.timestamp);\n        return true;\n    }\n\n    function arb(uint256 _amount) internal {\n        buyKyberSellUniswap(sai, 0x09cabEC1eAd1c0Ba254B09efb3EE13841712bE14, _amount);\n    }\n\n    function withdrawFunds() onlyOwner public {\n        msg.sender.transfer(address(this).balance);\n        ERC20(sai).transfer(msg.sender, ERC20(sai).balanceOf(address(this)));\n    }\n}\n\n\ninterface Structs {\n    struct Val {\n        uint256 value;\n    }\n\n    enum ActionType {\n      Deposit,   // supply tokens\n      Withdraw,  // borrow tokens\n      Transfer,  // transfer balance between accounts\n      Buy,       // buy an amount of some token (externally)\n      Sell,      // sell an amount of some token (externally)\n      Trade,     // trade tokens against another account\n      Liquidate, // liquidate an undercollateralized or expiring account\n      Vaporize,  // use excess tokens to zero-out a completely negative account\n      Call       // send arbitrary data to an address\n    }\n\n    enum AssetDenomination {\n        Wei // the amount is denominated in wei\n    }\n\n    enum AssetReference {\n        Delta // the amount is given as a delta from the current value\n    }\n\n    struct AssetAmount {\n        bool sign; // true if positive\n        AssetDenomination denomination;\n        AssetReference ref;\n        uint256 value;\n    }\n\n    struct ActionArgs {\n        ActionType actionType;\n        uint256 accountId;\n        AssetAmount amount;\n        uint256 primaryMarketId;\n        uint256 secondaryMarketId;\n        address otherAddress;\n        uint256 otherAccountId;\n        bytes data;\n    }\n\n    struct Info {\n        address owner;  // The address that owns the account\n        uint256 number; // A nonce that allows a single address to control many accounts\n    }\n\n    struct Wei {\n        bool sign; // true if positive\n        uint256 value;\n    }\n}\n\ncontract DyDxPool is Structs {\n    function getAccountWei(Info memory account, uint256 marketId) public view returns (Wei memory);\n    function operate(Info[] memory, ActionArgs[] memory) public;\n}\n\npragma solidity ^0.5.0;\n\n\n/**\n * @dev Interface of the ERC20 standard as defined in the EIP. Does not include\n * the optional functions; to access them see `ERC20Detailed`.\n */\ninterface IERC20 {\n    function balanceOf(address account) external view returns (uint256);\n\n    function approve(address spender, uint256 amount) external returns (bool);\n}\n\npragma solidity ^0.5.0;\n\n\ncontract DyDxFlashLoan is Structs {\n    DyDxPool pool = DyDxPool(0x1E0447b19BB6EcFdAe1e4AE1694b0C3659614e4e);\n\n    address public WETH = 0xC02aaA39b223FE8D0A0e5C4F27eAD9083C756Cc2;\n    address public SAI = 0x89d24A6b4CcB1B6fAA2625fE562bDD9a23260359;\n    address public USDC = 0xA0b86991c6218b36c1d19D4a2e9Eb0cE3606eB48;\n    address public DAI = 0x6B175474E89094C44Da98b954EedeAC495271d0F;\n    mapping(address => uint256) public currencies;\n\n    constructor() public {\n        currencies[WETH] = 1;\n        currencies[SAI] = 2;\n        currencies[USDC] = 3;\n        currencies[DAI] = 4;\n    }\n\n    modifier onlyPool() {\n        require(\n            msg.sender == address(pool),\n            \"FlashLoan: could be called by DyDx pool only\"\n        );\n        _;\n    }\n\n    function tokenToMarketId(address token) public view returns (uint256) {\n        uint256 marketId = currencies[token];\n        require(marketId != 0, \"FlashLoan: Unsupported token\");\n        return marketId - 1;\n    }\n\n    // the DyDx will call `callFunction(address sender, Info memory accountInfo, bytes memory data) public` after during `operate` call\n    function flashloan(address token, uint256 amount, bytes memory data)\n        internal\n    {\n        IERC20(token).approve(address(pool), amount + 1);\n        Info[] memory infos = new Info[](1);\n        ActionArgs[] memory args = new ActionArgs[](3);\n\n        infos[0] = Info(address(this), 0);\n\n        AssetAmount memory wamt = AssetAmount(\n            false,\n            AssetDenomination.Wei,\n            AssetReference.Delta,\n            amount\n        );\n        ActionArgs memory withdraw;\n        withdraw.actionType = ActionType.Withdraw;\n        withdraw.accountId = 0;\n        withdraw.amount = wamt;\n        withdraw.primaryMarketId = tokenToMarketId(token);\n        withdraw.otherAddress = address(this);\n\n        args[0] = withdraw;\n\n        ActionArgs memory call;\n        call.actionType = ActionType.Call;\n        call.accountId = 0;\n        call.otherAddress = address(this);\n        call.data = data;\n\n        args[1] = call;\n\n        ActionArgs memory deposit;\n        AssetAmount memory damt = AssetAmount(\n            true,\n            AssetDenomination.Wei,\n            AssetReference.Delta,\n            amount + 1\n        );\n        deposit.actionType = ActionType.Deposit;\n        deposit.accountId = 0;\n        deposit.amount = damt;\n        deposit.primaryMarketId = tokenToMarketId(token);\n        deposit.otherAddress = address(this);\n\n        args[2] = deposit;\n\n        pool.operate(infos, args);\n    }\n}\n\npragma solidity ^0.5.0;\n\ncontract ArbExample is DyDxFlashLoan, Trader {\n    uint256 public loan;\n\n    function getFlashloan(address flashToken, uint256 flashAmount) external {\n        uint256 balanceBefore = IERC20(flashToken).balanceOf(address(this));\n        bytes memory data = abi.encode(flashToken, flashAmount, balanceBefore);\n        flashloan(flashToken, flashAmount, data); // execution goes to `callFunction`\n    }\n\n    function callFunction(\n        address, /* sender */\n        Info calldata, /* accountInfo */\n        bytes calldata data\n    ) external onlyPool {\n        (address flashToken, uint256 flashAmount, uint256 balanceBefore) = abi\n            .decode(data, (address, uint256, uint256));\n        uint256 balanceAfter = IERC20(flashToken).balanceOf(address(this));\n        require(\n            balanceAfter - balanceBefore == flashAmount,\n            \"contract did not get the loan\"\n        );\n        loan = balanceAfter;\n\n        arb(loan);\n    }\n}\n",
  "sourcePath": "/Users/codeme/code/defi/src/contracts/ArbExample.sol",
  "compiler": {
    "name": "solc",
    "version": "0.5.12+commit.7709ece9.Emscripten.clang"
  },
  "schemaVersion": "3.0.20",
  "updatedAt": "2020-08-21T13:32:46.482Z",
  "devdoc": {
    "methods": {}
  },
  "userdoc": {
    "methods": {}
  }
}